:03000000021A776A
:0C1A7700787FE4F6D8FD758171021ABE7C
:100BA800000000000000000000000000000000003D
:100BB800000000000000000000000000000000002D
:100BC800000000000000000000000000000000001D
:100BD800000000000000000000000000700000009D
:100BE800000000003000000000000000300000009D
:100BF800000000103000000000000070300000000D
:100C08000000007030000000000000703800000094
:100C1800000000783800000000000078180000008C
:100C2800000000381800000000000038180000001C
:100C380000000018180000000000001C1C00000044
:100C4800000000001C000000000000001C00000064
:100C58000000000038000000000000003000000024
:100C6800000000000000000000000000000000007C
:100C7800000000000000000000000000000000006C
:100C8800000000000000000000000000000000005C
:100C9800000000C040000000000000C06400000028
:100CA800000000E066000000000000F837000000C7
:100CB800000000CE13000000000000661B000000CA
:100CC800000000300000000000000090000000005C
:100CD800000000E0FF070000000000F043030000F0
:100CE8000000004E40000000000080474B0000005C
:100CF800000080612B000000000000E83F000000B9
:100D0800000000E63F000000000000D232000000B2
:100D1800000000103000000000000000300000005B
:100D2800000000002000000000000000000000009B
:100D380000000000000000000000000000000000AB
:100D4800000000000000000000000000000000009B
:100D580000000000210000000000008031000000B9
:100D68000000008030000000000000801C0000002F
:100D7800000000C007000000000000C041000000A3
:100D880000000000C000000000000000C0000000DB
:100D9800000080FFFF010000000080FFFF0100004D
:100DA800000000D0000000000000009801000000D2
:100DB8000000000C03000000000000060200000014
:100DC800000000020C000000000000001C000000F1
:100DD80000000000180000000000000018000000DB
:100DE80000000000180000000000000010000000D3
:100DF80000000000100000000000000000000000DB
:100E080000000000000000000000000000000000DA
:100E180000000000020000000000000006000000C2
:100E280000000000020000000000000002000000B6
:100E38000000002003000000000000630300000021
:100E48000000003303000000000000130100000050
:100E5800000000930F000000000080FFFF07000063
:100E6800000080E301000000000080B101000000E4
:100E780000008099010000000000808C0100000043
:100E88000000008001000000000000800100000058
:100E980000000080010000000000000001000000C8
:100EA800000000000000000000000000000000003A
:100EB800000000000000000000000000000000002A
:100EC8000000000004000000000000000600000010
:100ED8000000008003000000000000E003000000A4
:100EE800000000F8FF0100000000001F20000000C3
:100EF8000000000720000000000000003000000093
:100F0800000000C030000000000000C030000000F9
:100F18000000008E090000000000008C070000009F
:100F28000000000807000000000000800700000023
:100F3800000000F00D0000000000003E1800000056
:100F4800000000067000000000000000E000000043
:100F580000000000E000000000000000C0000000E9
:100F680000000000C0000000000000008000000039
:100F78000000000000000000000000000000000069
:100F88000000000000000000000000000000000059
:100F98000000000000000000000000000000000049
:100FA8000000000000000000000000000000000039
:100FB8000000000000000000000000000000000029
:100FC8000000000000000000000000000000000019
:100FD8000000000000000000000000000000000009
:100FE80000000000000000000000000000000000F9
:100FF80000000000000000000000000000000000E9
:1010080000000000000000000000000000000000D8
:1010180000000000000000000000000000000000C8
:1010280000000000000000000000000000000000B8
:1010380000000000000000000000000000000000A8
:101048000000000000000000000000000000000098
:101058000000000000000000000000000000000088
:101068000000000000000000000000000000000078
:101078000000000000000000000000000000000068
:101088000000000000000000000000000000000058
:101098000000000000000000000000000000000048
:1010A800000000F81F00000000008007E0010000B9
:1010B80000007000000E000000000C00003000006E
:1010C8000000030000C0000000C000000000030092
:1010D80000200000000004000010000000000800CC
:1010E80000080000000010000004000000002000BC
:1010F8000002000000004000000100000000800025
:101108008000000000000001400000000000000214
:10111800200000000000000420000000000000047F
:101128001000000000000008100000000000000887
:101138000800000000000010080000000000001077
:10114800040000000000002004000000000000204F
:101158000400000000000020020000000000004021
:1011680002000000000000400200000000000040F3
:1011780002000000000000400100000000000080A4
:101188000100000000000080010000000000008055
:1011980001000000000000800100008001000080C4
:1011A80001000080010000800100000000000080B4
:1011B8000100000000000080010000000000008025
:1011C8000100000000000080020000000000004054
:1011D8000200000000000040020000000000004083
:1011E8000200000000000040040000000000002091
:1011F800040000000000002004000000000000209F
:1012080008000000000000100800000000000010A6
:101218001000000000000008100000000000000896
:10122800200000000000000420000000000000046E
:1012380040000000000000028000000000000001E3
:1012480000010000000080000002000000004000D3
:10125800000400000000200000080000000010004A
:10126800001000000000080000200000000004003A
:1012780000C00000000003000000030000C00000E0
:1012880000000C000030000000007000000E00009C
:1012980000008007E0010000000000F81F000000C7
:1012A8000000000000000000000000000000000036
:1012B8000000000000000000000000000000000026
:1012C8000000000000000000000000000000000016
:1012D8000000000000000000000000000000000006
:1012E80000000000000000000000000000000000F6
:1012F80000000000000000000000000000000000E6
:1013080000000000000000000000000000000000D5
:1013180000000000000000000000000000000000C5
:1013280000000000000000000000000000000000B5
:1013380000000000000000000000000000000000A5
:101348000000000000000000000000000000000095
:101358000000000000000000000000000000000085
:101368000000000000000000000000000000000075
:101378000000000000000000000000000000000065
:101388000000000000000000000000000000000055
:101398000000000000000000000000000000000045
:101C4D001E0C00000000000000000000000000005D
:101C5D000000000000000000000000000000000077
:101C6D001E2A00000000000000000000000000001F
:101C7D000000000000000000000000000000000057
:10000300E4F55AF55BF55CF55DF566F567F568F5BE
:10001300691219DB1217B0E4FDFF121D0EE4F5544B
:10002300F555E4F556F557C3E5579440E556648016
:1000330094805038AE56AF577C007D08121717AC2A
:1000430006AD07E555AE547803C333CE33CED8F9A6
:100053002DFFEC3EFE74A82FF582740B121CC8749E
:10006300082557F557E43556F55680BB0555E55534
:1000730070020554C39480E5546480948040A37F48
:10008300E8121D62E4FDFF121D0EE4F554F555E47C
:10009300F556F557C3E5579440E556648094805070
:1000A3002CAE56AF577C007D08121717AC06AD0770
:1000B300E555AE547803C333CE33CED8F9121CBC06
:1000C30074082557F557E43556F55680C70555E5A9
:1000D3005570020554C39480E5546480948040AF06
:1000E300121C8E121932D3E50994E7E50864809453
:1000F3008340067508037509E7D3E50B94E7E50A22
:10010300648094834006750A03750BE7AE08AF0954
:100113007C007D0A1217178E088F09AE0AAF0B7C7D
:10012300007D0A1217178E0A8F0BAF09AE08121B38
:10013300038E668F67AF0BAE0A121B608E688F69E2
:10014300E56715677002156674022569F569E4357C
:1001530068F568FCAD69FEAF69121705AA06AB071F
:10016300AC66AD67AE66AF67121705EF2BF55DEEB4
:100173003AF55CD3E55D9410E55C648094835003A9
:10018300020294AE66AF67121705AC06AD07EC1218
:10019300164BE4FBFA794478441214A0C004C0055A
:1001A300C006C007AC5CAD5DEC12164BA804A905F4
:1001B300AA06AB07D007D006D005D0041215A98F25
:1001C300618E608D5F8C5EAC68AD69AE68AF69129D
:1001D3001705AC06AD07EC12164BE4FBFA7944782D
:1001E300441214A0C004C005C006C007AC5CAD5DDA
:1001F300EC12164BA804A905AA06AB07D007D00634
:10020300D005D0041215A98F658E648D638C62D3DB
:10021300E5699400E56864809480401712188CA8FF
:1002230004A905AA06AB07E4FFFE7D707C42121306
:10023300AB8015AF65AE64AD63AC6212188CE4FBA2
:10024300FA797078421213AF1216848E548F55D3F5
:10025300E5679400E56664809480AF61AE60AD5F4E
:10026300AC5E400F12188CE4FBFA79E0784112136C
:10027300AF801512188CA804A905AA06AB07E4FFE2
:10028300FE7DE07C411213AB1216848E568F57808D
:1002930017C3743C9569F555E49568F554E56724EF
:1002A3001CF557E43566F556AE5AAF5B7C007D0806
:1002B300121717AD07AF59121D0EAE5AAF5B7C0074
:1002C3007D08121717AC06AD07E559AE587803C37E
:1002D30033CE33CED8F9121CBCAE5AAF5B7C007D53
:1002E30008121717AC06AD07E559AE587803C333A8
:1002F300CE33CED8F92DFFEC3EFE74A92FF58274D0
:100303000F121CC8AE5AAF5B7C007D08121717ADE5
:1003130007E55904FF121D0EAE5AAF5B7C007D0842
:10032300121717AC06AD07E559AE587803C333CEA1
:1003330033CED8F92DFFEC3EFE74B02FF582740F47
:10034300121CC8AE5AAF5B7C007D08121717AC06AF
:10035300AD07E559AE587803C333CE33CED8F92D64
:10036300FFEC3EFE74B12FF582740F121CC8AE5A17
:10037300AF5B7C007D08121717E559121D09AE5AB1
:10038300AF5B7C007D08121717AC06AD07E559AECD
:10039300587803C333CE33CED8F92DFFEC3EFE7429
:1003A300B82FF582740F121CC8AE5AAF5B7C007D68
:1003B30008121717AC06AD07E559AE587803C333D7
:1003C300CE33CED8F92DFFEC3EFE74B92FF58274EF
:1003D3000F121CC8AE5AAF5B7C007D08121717AD15
:1003E30007E5592403FF121D0EAE5AAF5B7C007D57
:1003F30008121717AC06AD07E559AE587803C33397
:10040300CE33CED8F92DFFEC3EFE74C02FF58274A7
:100413000F121CC8AE5AAF5B7C007D08121717ACD5
:1004230006AD07E559AE587803C333CE33CED8F9BA
:100433002DFFEC3EFE74C12FF582740F121CC8AE63
:100443005AAF5B7C007D08121717AD07E5592404EA
:10045300FF121D0EAE5AAF5B7C007D08121717AC5E
:1004630006AD07E559AE587803C333CE33CED8F97A
:100473002DFFEC3EFE74C82FF582740F121CC8AE1C
:100483005AAF5B7C007D08121717AC06AD07E55920
:10049300AE587803C333CE33CED8F92DFFEC3EFEEE
:1004A30074C92FF582740F121CC8AE5AAF5B7C005F
:1004B3007D08121717AD07E5592405FF121D0EAE6F
:1004C3005AAF5B7C007D08121717AC06AD07E559E0
:1004D300AE587803C333CE33CED8F92DFFEC3EFEAE
:1004E30074D02FF582740F121CC8AE5AAF5B7C0018
:1004F3007D08121717AC06AD07E559AE587803C34C
:1005030033CE33CED8F92DFFEC3EFE74D12FF582D6
:10051300740F121CC8AE5AAF5B7C007D081217170C
:10052300AD07E5592406FF121D0EAE5AAF5B7C00E2
:100533007D08121717AC06AD07E559AE587803C30B
:1005430033CE33CED8F92DFFEC3EFE74D82FF5828F
:10055300740F121CC8AE5AAF5B7C007D08121717CC
:10056300AC06AD07E559AE587803C333CE33CED8C6
:10057300F92DFFEC3EFE74D92FF582740F121CC8BF
:10058300AE5AAF5B7C007D08121717AD07E55924FF
:1005930007FF121D0EAE5AAF5B7C007D08121717C2
:1005A300AC06AD07E559AE587803C333CE33CED886
:1005B300F92DFFEC3EFE74E02FF582740F121CC878
:1005C300AE5AAF5B7C007D08121717AC06AD07E58A
:1005D30059AE587803C333CE33CED8F92DFFEC3E52
:1005E300FE74E12FF582740F121CC8E555643C4577
:1005F300546010E555643B45546008E555643D453A
:10060300547023E557641C45566010E557641A453A
:10061300566008E557641B4556700B756A3C756B4D
:100623007E756CFF8009756A3C756B42756C81AE93
:1006330056AF577C007D08121717AD07AF55121D33
:100643000EAE56AF577C007D08121717AC06AD07E8
:10065300E555AE547803C333CE33CED8F92DFFEC32
:100663003EFE74A82FF582740F3EF583E493FBAE30
:1006730056AF577C007D08121717AF05E56AA80728
:10068300088002C333D8FC4BFF121CCEAE56AF57C3
:100693007C007D08121717AC06AD07E555AE5478FC
:1006A30003C333CE33CED8F92DFFEC3EFE74A92F0E
:1006B300F582740F3EF583E493FBAE56AF577C008F
:1006C3007D08121717C374089DFFE56AA807088001
:1006D30002C313D8FC4BFF121CCEAE56AF577C009F
:1006E3007D08121717AD07E55504FF121D0EAE5610
:1006F300AF577C007D08121717AC06AD07E555AE62
:10070300547803C333CE33CED8F92DFFEC3EFE74B9
:10071300B02FF582740F3EF583E493FBAE56AF57CB
:100723007C007D08121717AF05E56BA80708800248
:10073300C333D8FC4BFF121CCEAE56AF577C007DA3
:1007430008121717AC06AD07E555AE547803C3334B
:10075300CE33CED8F92DFFEC3EFE74B12FF5827463
:100763000F3EF583E493FBAE56AF577C007D081232
:100773001717C374089DFFE56BA807088002C3130E
:10078300D8FC4BFF121CCEAE56AF577C007D08122F
:100793001717E555121D09AE56AF577C007D081299
:1007A3001717AC06AD07E555AE547803C333CE3304
:1007B300CED8F92DFFEC3EFE74B82FF582740F3EB0
:1007C300F583E493FBAE56AF577C007D08121717F1
:1007D300AF05E56CA807088002C333D8FC4BFF12B2
:1007E3001CCEAE56AF577C007D08121717AC06AD72
:1007F30007E555AE547803C333CE33CED8F92DFF76
:10080300EC3EFE74B92FF582740F3EF583E493FB3F
:10081300AE56AF577C007D08121717C374089DFFAF
:10082300E56CA807088002C313D8FC4BFF121CCE4B
:10083300AE56AF577C007D08121717AD07E5552458
:1008430003FF121D0EAE56AF577C007D081217171B
:10085300AC06AD07E555AE547803C333CE33CED8DB
:10086300F92DFFEC3EFE74C02FF582740F3EF58325
:10087300E493FBAE56AF577C007D08121717AF0504
:10088300E56CA807088002C333D8FC4BFF121CCECB
:10089300AE56AF577C007D08121717AC06AD07E5BF
:1008A30055AE547803C333CE33CED8F92DFFEC3E87
:1008B300FE74C12FF582740F3EF583E493FBAE56AD
:1008C300AF577C007D08121717C374089DFFE56CB2
:1008D300A807088002C313D8FC4BFF121CCEAE56E8
:1008E300AF577C007D08121717AD07E5552404FFA9
:1008F300121D0EAE56AF577C007D08121717AC06BB
:10090300AD07E555AE547803C333CE33CED8F92DB6
:10091300FFEC3EFE74C82FF582740F3EF583E4931B
:10092300FBAE56AF577C007D08121717AF05E56C79
:10093300A807088002C333D8FC4BFF121CCEAE5667
:10094300AF577C007D08121717AC06AD07E555AE0F
:10095300547803C333CE33CED8F92DFFEC3EFE7467
:10096300C92FF582740F3EF583E493FBAE56AF5760
:100973007C007D08121717C374089DFFE56CA80758
:10098300088002C313D8FC4BFF121CCEAE56AF57E0
:100993007C007D08121717AD07E5552405FF121DCE
:1009A3000EAE56AF577C007D08121717AC06AD0785
:1009B300E555AE547803C333CE33CED8F92DFFECCF
:1009C3003EFE74D02FF582740F3EF583E493FBAEA5
:1009D30056AF577C007D08121717AF05E56CA807C3
:1009E300088002C333D8FC4BFF121CCEAE56AF5760
:1009F3007C007D08121717AC06AD07E555AE547899
:100A030003C333CE33CED8F92DFFEC3EFE74D12F82
:100A1300F582740F3EF583E493FBAE56AF577C002B
:100A23007D08121717C374089DFFE56CA80708809B
:100A330002C313D8FC4BFF121CCEAE56AF577C003B
:100A43007D08121717AD07E5552406FF121D0EAEDC
:100A530056AF577C007D08121717AC06AD07E55556
:100A6300AE547803C333CE33CED8F92DFFEC3EFE1C
:100A730074D82FF582740F3EF583E493FBAE56AF23
:100A8300577C007D08121717AF05E56BA807088090
:100A930002C333D8FC4BFF121CCEAE56AF577C00BB
:100AA3007D08121717AC06AD07E555AE547803C39E
:100AB30033CE33CED8F92DFFEC3EFE74D92FF58219
:100AC300740F3EF583E493FBAE56AF577C007D086D
:100AD300121717C374089DFFE56BA807088002C3AC
:100AE30013D8FC4BFF121CCEAE56AF577C007D08CB
:100AF300121717AD07E5552407FF121D0EAE56AFAB
:100B0300577C007D08121717AC06AD07E555AE54A8
:100B13007803C333CE33CED8F92DFFEC3EFE74E019
:100B23002FF582740F3EF583E493FBAE56AF577CEB
:100B3300007D08121717AF05E56AA807088002C3EE
:100B430033D8FC4BFF121CCEAE56AF577C007D084A
:100B5300121717AC06AD07E555AE547803C333CE71
:100B630033CED8F92DFFEC3EFE74E12FF582740FDE
:100B73003EF583E493FBAE56AF577C007D08121716
:100B830017C374089DFFE56AA807088002C313D83A
:100B9300FC4BFF121CCE85545885555985565A85F2
:050BA300575B0200E3B6
:101D6200AD071FED600FE4FEEEC394FA50F20000DF
:051D720000000E80F3EB
:011D77002249
:1019DB007FF4121D627FAE121D4BE4FF121D4B7F75
:1019EB0010121D4B7F40121D4B7F81121D4B7FCF61
:1019FB00121D4B7FA1121D4B7FC8121D4B7FA612D0
:101A0B001D4B7FA8121D4B7F3F121D4B7FD3121D09
:101A1B004BE4FF121D4B7FD5121D4B7F80121D4BCC
:101A2B007FD9121D4B7FF1121D4B7FDA121D4B7F9D
:101A3B0012121D4B7FDB121D4B7F40121D4B7F2063
:101A4B00121D4B7F01121D4B7F8D121D4B7F1412EC
:101A5B001D4B7FA4121D4B7FA6121D4B7FAF121D7A
:0C1A6B004BE4FF121CE5E4FDFF021D0E21
:101D4B008F71121D787F78121D2CE4FF121D2CAFA2
:071D5B0071121D2C021D8115
:021CE5008F6D01
:101CE700E4FDFF121D0EE4F56EF56FAF6D121CCE0D
:101CF700056FE56F7002056EC3E56E6480948440DE
:011D0700EAF1
:011D080022B8
:051D0900AD072402FFFC
:101D0E008F70ED24B0FF121D4BE57054F0C4540FCC
:0E1D1E004410FF121D4BE570540FFF021D4BC9
:091D7800D280D281C281C2802216
:101D2C00E4FEEF30E704D2818002C281D280C2800F
:0E1D3C00EF25E0FF0EBE08EAD281D280C28001
:011D4A002276
:091D8100C280C281D280D281220D
:101CBC002DFFEC3EFE74A82FF582740F3EF583E4E5
:021CCC0093FF84
:101CCE00AD07121D787F78121D2C7F40121D2CAF90
:071CDE0005121D2C021D81FF
:1017B0007D4B7F31121C067F0A121D627D087F2C33
:1017C000121C067F0A121D627D087F2D121C067FE7
:1017D0000A121D627D807F2E121C067F0A121D6276
:1017E000E4FD7F2F121C067F0A121D627DFE7F1E04
:1017F000121C067F0A121D62E4FD7F1F121C067F69
:101800000A121D627DF77F20121C067F0A121D62DC
:10181000E4FD7F21121C067F0A121D62E4FD7F2277
:10182000121C067F0A121D62E4FD7F23121C067F34
:101830000A121D62E4FD7F24121C067F0A121D623B
:10184000E4FD7F25121C067F0A121D627D2B7F2678
:10185000121C067F0A121D62E4FD7F27121C067F00
:101860000A121D627D097F28121C067F0A121D6262
:101870007DFF7F29121C067F0A121D627D807F2A50
:08188000121C067F0A021D6222
:101C0600E4FE53077F5307BFC2A500D2A700C2A7B1
:101C160000EF3392A6000000D2A70000EF25E0FFF8
:101C26000EBE08EAE4FEC2A700ED3392A60000004D
:101C3600D2A70000ED25E0FD0EBE08EA0000D2A7FF
:061C46000000D2A6D2A5A9
:011C4C002275
:101C8E007F32121BBD7548008F497F33121BBD7505
:101C9E004A008F4B7F0A121D627F34121BBD754C9A
:0E1CAE00008F4D7F35121BBD754E008F4F22EB
:101BBD00E4FD4307805307BFC2A50000D2A7000074
:101BCD00C2A700EF3392A6000000D2A70000EF25B8
:101BDD00E0FF0DBD08EAE4FDC2A7EE25E0FE00A280
:101BED00A6E43342060000D2A700000DBD08E900AF
:081BFD0000D2A700D2A5AF063B
:011C050022BC
:10193200E54B7F00FEEF2549F509E5483EF508E550
:101942004FFEEF254DF50BE54C3EF50AE50830E478
:1019520024E509F4FFE508F4FEEF2401F509E43E6D
:10196200F508E4F550AC08AD09EC12164B7BCD7AC4
:10197200CC797C8011755001AC08AD09EC12164B84
:101982007BCD7ACC796C78401214A01216848E0822
:101992008F09E50A30E424E50BF4FFE50AF4FEEFD3
:1019A2002401F50BE43EF50AE4F551AC0AAD0BEC6B
:1019B20012164B7B337A3379738011755101AC0A5D
:1019C200AD0BEC12164B7BCD7ACC797C784012149D
:0919D200A01216848E0A8F0B226C
:101B0300E4FDFCE55225E0240CF8A60608A607E54B
:101B130050701FE55225E0240CF8E6FE08E6FFC3EB
:101B2300E49FFFE49EFEE55225E0240CF8A6060898
:101B3300A6070552E552B40F03E4F552E4FFEF257F
:101B4300E0240CF8E6FA08E62DFDEA3CFC0FBF0F93
:0C1B5300EDAE04AF057C007D0F121717EB
:011B5F002263
:101B6000E4FDFCE55325E0242AF8A60608A607E5CF
:101B700051701FE55325E0242AF8E6FE08E6FFC36E
:101B8000E49FFFE49EFEE55325E0242AF8A606081C
:101B9000A6070553E553B40F03E4F553E4FFEF251F
:101BA000E0242AF8E6FA08E62DFDEA3CFC0FBF0F18
:0C1BB000EDAE04AF057C007D0F1217178E
:011BBC002206
:1013A8000216F0E86480F8E933E83360110460F06D
:1013B800ED33EC337009E8FCE9FDEAFEEBFF2204AB
:1013C80060DED3EB9FEA9EE99DE8C2E78CF0C2F7A6
:1013D80095F0400CE8CCF8E9CDF9EACEFAEBCFFB72
:1013E8001216BB85D0F05804700320D5B3E80470FA
:1013F800075002B2D50216FA92D5EC0460F7E4CC95
:10140800C0E0C398F8603B94186008400DD0E0FB3A
:101418000216D2E4FBFAC9FC8028E830E406E4C9E5
:10142800FBE4CAFCE830E305E4C9CACBFCE854078E
:101438006010F8C3E913F9EA13FAEB13FBEC13FC99
:10144800D8F130F52FC3E49CFCEF9BFFEE9AFEED3C
:1014580099FDD0E0FBEF4E4D4C701222DB030216D3
:10146800F7EC2CFCEF33FFEE33FEED33FDED30E708
:10147800EB0216D2EF2BFFEE3AFEED39FDD0E0FB82
:1014880050130BBB00030216FAED13FDEE13FEEF2B
:0814980013FFEC13FC0216D255
:1014A000EC4D6011E8497017ED33EC3304600DE446
:1014B000FCFFFEFD22E933E8330470F80216F01257
:1014C00016BB58046009E4CC248150062850090258
:1014D00016FA2840030216F7C0E0EB4A7044B980C0
:1014E00006D0E0FB0216E6EF4E701CBD8008EBFF55
:1014F000EAFEE9FD80EBE98DF0A4FEE5F002158936
:10150000E9CDF9EAFEEBFFEF89F0A4FCE5F0CE8926
:10151000F0A42EFFE435F0CD89F0A42DFEE435F0E3
:101520008067EF4E7005BD80D780C3EF8BF0A4AC11
:10153000F0EE8BF0A42CFCE435F0F8EF8AF0A42C4C
:10154000E5F038FCE433CB8DF0A42CFCE5F03BF85F
:10155000EE8AF0A42CFCE5F038F8E433CF89F0A44F
:101560002CFCE5F038CF3400CE89F0A42FFFE5F055
:101570003EFEE433C98DF0A42EFEE5F039CD8AF0AD
:10158000A42FFFE5F03EFEE43DFD33D0E0FB500725
:101590000BBB000F0216FAEC2CFCEF33FFEE33FE10
:0615A000ED33FD0216D23E
:1015A6000216FAEC5D046005E8590470030216F0B1
:1015B6001216BB580460F6EC4860F2EC7004FDFEAF
:1015C600FF22C860DB2481C85009C3986002500618
:1015D6000216F79850CAF582E9294B4A7005AB8284
:1015E6000216E675F0007C1A7880C3EF9BEE9AED42
:1015F60099400DC3EF9BFFEE9AFEED99FDE842F090
:10160600DC23ACF0D0E0FFD0E0FED0E0FDAB8220E2
:10161600E7101BEB60BAEC2CFCEF33FFEE33FEED6C
:1016260033FD0216D2E803F830E705C0F075F00086
:10163600EF2FFFEE33FEED33FD40B830E7C280AA50
:1016460075F020800E75F010800575F0087D007E1F
:10165600007F003392D530D50312174DEC3340107E
:10166600EF33FFEE33FEED33FDEC33FCD5F0ED2228
:0E167600E5F0247EA2D513CC92E7CDCEFF2264
:10168400EDD2E7CD33EC3392D524814006E4FFFE5E
:10169400FDFC22FCE4CFCECDCC24E0501174FF80BD
:1016A400EDC3CC13CCCD13CDCE13CECF13CF04705A
:0716B400F030D5DE02174DF6
:101888000216F022EDA2E7D2E7F9EC3340F260F35A
:10189800B4FF08ED547F70E80216FAF82481C2E01C
:1018A800C0E0F40428FAC313FCED92E7FD8C6D8DBB
:1018B8006E8E6F8F70EEA2E7E9BA7F02C313340011
:1018C8009400FA75F091A4E5F013F494FE8AF0A45C
:1018D80033E5F033248CD313FDE492E7FE7F007CDC
:1018E8003F758302ECC0E0F8EDC0E0F9EEC0E0FA25
:1018F800EFC0E0FBAC6DAD6EAE6FAF701215A9D046
:10190800E0FBD0E0FAD0E0F9D0E0F81213AFED64D4
:1019180080FD30E7011CD583CBED33CC33F8D0E024
:0A192800A2E71328C313CC13FD221D
:1016BB00E9D2E7C933E833F892D5EDD2E7CD33EC75
:0716CB0033FC5002B2D522EE
:1016D200EC30E7100FBF000C0EBE00080DBD000479
:1016E2000BEB6014A2D5EB13FCED92E7FD2274FF25
:1016F200FCFDFEFF22E480F8A2D574FF13FC7D807E
:03170200E480EF91
:101A8300020003E493A3F8E493A34003F68001F276
:101A930008DFF48029E493A3F85407240CC8C33364
:101AA300C4540F4420C8834004F456800146F6DF33
:101AB300E4800B0102040810204080901C4DE47E5A
:101AC300019360BCA3FF543F30E509541FFEE49328
:101AD300A360010ECF54C025E060A840B8E493A3EF
:101AE300FAE493A3F8E493A3C8C582C8CAC583CA1A
:101AF300F0A3C8C582C8CAC583CADFE9DEE780BED2
:011C8D000056
:10170500EF8DF0A4A8F0CF8CF0A428CE8DF0A42EF8
:02171500FE22B2
:10171700C2D5EC30E709B2D5E4C39DFDE49CFCEEED
:1017270030E715B2D5E4C39FFFE49EFE12175BC3F3
:10173700E49DFDE49CFC800312175B30D507C3E4EE
:061747009FFFE49EFE225C
:0E174D00C3E49FFFE49EFEE49DFDE49CFC22AD
:10175B00BC000BBE0029EF8DF084FFADF022E4CC72
:10176B00F875F008EF2FFFEE33FEEC33FCEE9DEC3B
:10177B00984005FCEE9DFE0FD5F0E9E4CEFD22ED81
:10178B00F8F5F0EE8420D21CFEADF075F008EF2FCB
:10179B00FFED33FD4007985006D5F0F222C398FDBC
:0517AB000FD5F0EA2259
:00000001FF
